{
  "contractName": "GameItems",
  "abi": [
    {
      "inputs": [],
      "stateMutability": "nonpayable",
      "type": "constructor"
    },
    {
      "anonymous": false,
      "inputs": [
        {
          "indexed": true,
          "internalType": "address",
          "name": "account",
          "type": "address"
        },
        {
          "indexed": true,
          "internalType": "address",
          "name": "operator",
          "type": "address"
        },
        {
          "indexed": false,
          "internalType": "bool",
          "name": "approved",
          "type": "bool"
        }
      ],
      "name": "ApprovalForAll",
      "type": "event"
    },
    {
      "anonymous": false,
      "inputs": [
        {
          "indexed": true,
          "internalType": "address",
          "name": "operator",
          "type": "address"
        },
        {
          "indexed": true,
          "internalType": "address",
          "name": "from",
          "type": "address"
        },
        {
          "indexed": true,
          "internalType": "address",
          "name": "to",
          "type": "address"
        },
        {
          "indexed": false,
          "internalType": "uint256[]",
          "name": "ids",
          "type": "uint256[]"
        },
        {
          "indexed": false,
          "internalType": "uint256[]",
          "name": "values",
          "type": "uint256[]"
        }
      ],
      "name": "TransferBatch",
      "type": "event"
    },
    {
      "anonymous": false,
      "inputs": [
        {
          "indexed": true,
          "internalType": "address",
          "name": "operator",
          "type": "address"
        },
        {
          "indexed": true,
          "internalType": "address",
          "name": "from",
          "type": "address"
        },
        {
          "indexed": true,
          "internalType": "address",
          "name": "to",
          "type": "address"
        },
        {
          "indexed": false,
          "internalType": "uint256",
          "name": "id",
          "type": "uint256"
        },
        {
          "indexed": false,
          "internalType": "uint256",
          "name": "value",
          "type": "uint256"
        }
      ],
      "name": "TransferSingle",
      "type": "event"
    },
    {
      "anonymous": false,
      "inputs": [
        {
          "indexed": false,
          "internalType": "string",
          "name": "value",
          "type": "string"
        },
        {
          "indexed": true,
          "internalType": "uint256",
          "name": "id",
          "type": "uint256"
        }
      ],
      "name": "URI",
      "type": "event"
    },
    {
      "inputs": [],
      "name": "GOLD",
      "outputs": [
        {
          "internalType": "uint256",
          "name": "",
          "type": "uint256"
        }
      ],
      "stateMutability": "view",
      "type": "function",
      "constant": true
    },
    {
      "inputs": [],
      "name": "SHIELD",
      "outputs": [
        {
          "internalType": "uint256",
          "name": "",
          "type": "uint256"
        }
      ],
      "stateMutability": "view",
      "type": "function",
      "constant": true
    },
    {
      "inputs": [],
      "name": "SILVER",
      "outputs": [
        {
          "internalType": "uint256",
          "name": "",
          "type": "uint256"
        }
      ],
      "stateMutability": "view",
      "type": "function",
      "constant": true
    },
    {
      "inputs": [],
      "name": "SWORD",
      "outputs": [
        {
          "internalType": "uint256",
          "name": "",
          "type": "uint256"
        }
      ],
      "stateMutability": "view",
      "type": "function",
      "constant": true
    },
    {
      "inputs": [],
      "name": "THORS_HAMMER",
      "outputs": [
        {
          "internalType": "uint256",
          "name": "",
          "type": "uint256"
        }
      ],
      "stateMutability": "view",
      "type": "function",
      "constant": true
    },
    {
      "inputs": [
        {
          "internalType": "address",
          "name": "account",
          "type": "address"
        },
        {
          "internalType": "uint256",
          "name": "id",
          "type": "uint256"
        }
      ],
      "name": "balanceOf",
      "outputs": [
        {
          "internalType": "uint256",
          "name": "",
          "type": "uint256"
        }
      ],
      "stateMutability": "view",
      "type": "function",
      "constant": true
    },
    {
      "inputs": [
        {
          "internalType": "address[]",
          "name": "accounts",
          "type": "address[]"
        },
        {
          "internalType": "uint256[]",
          "name": "ids",
          "type": "uint256[]"
        }
      ],
      "name": "balanceOfBatch",
      "outputs": [
        {
          "internalType": "uint256[]",
          "name": "",
          "type": "uint256[]"
        }
      ],
      "stateMutability": "view",
      "type": "function",
      "constant": true
    },
    {
      "inputs": [
        {
          "internalType": "address",
          "name": "account",
          "type": "address"
        },
        {
          "internalType": "address",
          "name": "operator",
          "type": "address"
        }
      ],
      "name": "isApprovedForAll",
      "outputs": [
        {
          "internalType": "bool",
          "name": "",
          "type": "bool"
        }
      ],
      "stateMutability": "view",
      "type": "function",
      "constant": true
    },
    {
      "inputs": [
        {
          "internalType": "address",
          "name": "from",
          "type": "address"
        },
        {
          "internalType": "address",
          "name": "to",
          "type": "address"
        },
        {
          "internalType": "uint256[]",
          "name": "ids",
          "type": "uint256[]"
        },
        {
          "internalType": "uint256[]",
          "name": "amounts",
          "type": "uint256[]"
        },
        {
          "internalType": "bytes",
          "name": "data",
          "type": "bytes"
        }
      ],
      "name": "safeBatchTransferFrom",
      "outputs": [],
      "stateMutability": "nonpayable",
      "type": "function"
    },
    {
      "inputs": [
        {
          "internalType": "address",
          "name": "from",
          "type": "address"
        },
        {
          "internalType": "address",
          "name": "to",
          "type": "address"
        },
        {
          "internalType": "uint256",
          "name": "id",
          "type": "uint256"
        },
        {
          "internalType": "uint256",
          "name": "amount",
          "type": "uint256"
        },
        {
          "internalType": "bytes",
          "name": "data",
          "type": "bytes"
        }
      ],
      "name": "safeTransferFrom",
      "outputs": [],
      "stateMutability": "nonpayable",
      "type": "function"
    },
    {
      "inputs": [
        {
          "internalType": "address",
          "name": "operator",
          "type": "address"
        },
        {
          "internalType": "bool",
          "name": "approved",
          "type": "bool"
        }
      ],
      "name": "setApprovalForAll",
      "outputs": [],
      "stateMutability": "nonpayable",
      "type": "function"
    },
    {
      "inputs": [
        {
          "internalType": "bytes4",
          "name": "interfaceId",
          "type": "bytes4"
        }
      ],
      "name": "supportsInterface",
      "outputs": [
        {
          "internalType": "bool",
          "name": "",
          "type": "bool"
        }
      ],
      "stateMutability": "view",
      "type": "function",
      "constant": true
    },
    {
      "inputs": [
        {
          "internalType": "uint256",
          "name": "",
          "type": "uint256"
        }
      ],
      "name": "uri",
      "outputs": [
        {
          "internalType": "string",
          "name": "",
          "type": "string"
        }
      ],
      "stateMutability": "view",
      "type": "function",
      "constant": true
    }
  ],
  "bytecode": "0x60806040523480156200001157600080fd5b506040518060400160405280601181526020017f2e2f6d657461646174612f312e6a736f6e00000000000000000000000000000081525062000059816200013160201b60201c565b5062000086336000670de0b6b3a7640000604051806020016040528060008152506200014d60201b60201c565b620000b63360016b033b2e3c9fd0803ce8000000604051806020016040528060008152506200014d60201b60201c565b620000db3360026001604051806020016040528060008152506200014d60201b60201c565b62000103336003633b9aca00604051806020016040528060008152506200014d60201b60201c565b6200012b336004633b9aca00604051806020016040528060008152506200014d60201b60201c565b62000d45565b806002908051906020019062000149929190620005c0565b5050565b600073ffffffffffffffffffffffffffffffffffffffff168473ffffffffffffffffffffffffffffffffffffffff161415620001c0576040517f08c379a0000000000000000000000000000000000000000000000000000000008152600401620001b790620006f7565b60405180910390fd5b6000620001d26200031260201b60201c565b90506200020b81600087620001ed886200031a60201b60201c565b620001fe886200031a60201b60201c565b876200039b60201b60201c565b8260008086815260200190815260200160002060008773ffffffffffffffffffffffffffffffffffffffff1673ffffffffffffffffffffffffffffffffffffffff16815260200190815260200160002060008282546200026c919062000752565b925050819055508473ffffffffffffffffffffffffffffffffffffffff16600073ffffffffffffffffffffffffffffffffffffffff168273ffffffffffffffffffffffffffffffffffffffff167fc3d58168c5ae7397731d063d5bbf3d657854427343f4c083240f7aacaa2d0f628787604051620002ec929190620007c0565b60405180910390a46200030b81600087878787620003a360201b60201c565b5050505050565b600033905090565b60606000600167ffffffffffffffff8111156200033c576200033b620007ed565b5b6040519080825280602002602001820160405280156200036b5781602001602082028036833780820191505090505b50905082816000815181106200038657620003856200081c565b5b60200260200101818152505080915050919050565b505050505050565b620003cf8473ffffffffffffffffffffffffffffffffffffffff16620005ad60201b6200080a1760201c565b15620005a5578373ffffffffffffffffffffffffffffffffffffffff1663f23a6e6187878686866040518663ffffffff1660e01b81526004016200041895949392919062000934565b602060405180830381600087803b1580156200043357600080fd5b505af19250505080156200046757506040513d601f19601f8201168201806040525081019062000464919062000a04565b60015b62000519576200047662000a43565b806308c379a01415620004da57506200048e62000a9e565b806200049b5750620004dc565b806040517f08c379a0000000000000000000000000000000000000000000000000000000008152600401620004d1919062000b8c565b60405180910390fd5b505b6040517f08c379a0000000000000000000000000000000000000000000000000000000008152600401620005109062000c26565b60405180910390fd5b63f23a6e6160e01b7bffffffffffffffffffffffffffffffffffffffffffffffffffffffff1916817bffffffffffffffffffffffffffffffffffffffffffffffffffffffff191614620005a3576040517f08c379a00000000000000000000000000000000000000000000000000000000081526004016200059a9062000cbe565b60405180910390fd5b505b505050505050565b600080823b905060008111915050919050565b828054620005ce9062000d0f565b90600052602060002090601f016020900481019282620005f257600085556200063e565b82601f106200060d57805160ff19168380011785556200063e565b828001600101855582156200063e579182015b828111156200063d57825182559160200191906001019062000620565b5b5090506200064d919062000651565b5090565b5b808211156200066c57600081600090555060010162000652565b5090565b600082825260208201905092915050565b7f455243313135353a206d696e7420746f20746865207a65726f2061646472657360008201527f7300000000000000000000000000000000000000000000000000000000000000602082015250565b6000620006df60218362000670565b9150620006ec8262000681565b604082019050919050565b600060208201905081810360008301526200071281620006d0565b9050919050565b6000819050919050565b7f4e487b7100000000000000000000000000000000000000000000000000000000600052601160045260246000fd5b60006200075f8262000719565b91506200076c8362000719565b9250827fffffffffffffffffffffffffffffffffffffffffffffffffffffffffffffffff03821115620007a457620007a362000723565b5b828201905092915050565b620007ba8162000719565b82525050565b6000604082019050620007d76000830185620007af565b620007e66020830184620007af565b9392505050565b7f4e487b7100000000000000000000000000000000000000000000000000000000600052604160045260246000fd5b7f4e487b7100000000000000000000000000000000000000000000000000000000600052603260045260246000fd5b600073ffffffffffffffffffffffffffffffffffffffff82169050919050565b600062000878826200084b565b9050919050565b6200088a816200086b565b82525050565b600081519050919050565b600082825260208201905092915050565b60005b83811015620008cc578082015181840152602081019050620008af565b83811115620008dc576000848401525b50505050565b6000601f19601f8301169050919050565b6000620009008262000890565b6200090c81856200089b565b93506200091e818560208601620008ac565b6200092981620008e2565b840191505092915050565b600060a0820190506200094b60008301886200087f565b6200095a60208301876200087f565b620009696040830186620007af565b620009786060830185620007af565b81810360808301526200098c8184620008f3565b90509695505050505050565b6000604051905090565b600080fd5b60007fffffffff0000000000000000000000000000000000000000000000000000000082169050919050565b620009de81620009a7565b8114620009ea57600080fd5b50565b600081519050620009fe81620009d3565b92915050565b60006020828403121562000a1d5762000a1c620009a2565b5b600062000a2d84828501620009ed565b91505092915050565b60008160e01c9050919050565b600060033d111562000a655760046000803e62000a6260005162000a36565b90505b90565b62000a7382620008e2565b810181811067ffffffffffffffff8211171562000a955762000a94620007ed565b5b80604052505050565b600060443d101562000ab05762000b3d565b62000aba62000998565b60043d036004823e80513d602482011167ffffffffffffffff8211171562000ae457505062000b3d565b808201805167ffffffffffffffff81111562000b04575050505062000b3d565b80602083010160043d03850181111562000b2357505050505062000b3d565b62000b348260200185018662000a68565b82955050505050505b90565b600081519050919050565b600062000b588262000b40565b62000b64818562000670565b935062000b76818560208601620008ac565b62000b8181620008e2565b840191505092915050565b6000602082019050818103600083015262000ba8818462000b4b565b905092915050565b7f455243313135353a207472616e7366657220746f206e6f6e204552433131353560008201527f526563656976657220696d706c656d656e746572000000000000000000000000602082015250565b600062000c0e60348362000670565b915062000c1b8262000bb0565b604082019050919050565b6000602082019050818103600083015262000c418162000bff565b9050919050565b7f455243313135353a204552433131353552656365697665722072656a6563746560008201527f6420746f6b656e73000000000000000000000000000000000000000000000000602082015250565b600062000ca660288362000670565b915062000cb38262000c48565b604082019050919050565b6000602082019050818103600083015262000cd98162000c97565b9050919050565b7f4e487b7100000000000000000000000000000000000000000000000000000000600052602260045260246000fd5b6000600282049050600182168062000d2857607f821691505b6020821081141562000d3f5762000d3e62000ce0565b5b50919050565b6126968062000d556000396000f3fe608060405234801561001057600080fd5b50600436106100ce5760003560e01c80634e1273f41161008c578063d562e20411610066578063d562e20414610225578063e3e55f0814610243578063e985e9c514610261578063f242432a14610291576100ce565b80634e1273f4146101bb5780635b2725ed146101eb578063a22cb46514610209576100ce565b8062fdd58e146100d357806301ffc9a7146101035780630e89341c1461013357806313dc989f146101635780632eb2c2d6146101815780633e4bee381461019d575b600080fd5b6100ed60048036038101906100e8919061148a565b6102ad565b6040516100fa91906114d9565b60405180910390f35b61011d6004803603810190610118919061154c565b610376565b60405161012a9190611594565b60405180910390f35b61014d600480360381019061014891906115af565b610458565b60405161015a9190611675565b60405180910390f35b61016b6104ec565b60405161017891906114d9565b60405180910390f35b61019b60048036038101906101969190611894565b6104f1565b005b6101a5610592565b6040516101b291906114d9565b60405180910390f35b6101d560048036038101906101d09190611a26565b610597565b6040516101e29190611b5c565b60405180910390f35b6101f36106b0565b60405161020091906114d9565b60405180910390f35b610223600480360381019061021e9190611baa565b6106b5565b005b61022d6106cb565b60405161023a91906114d9565b60405180910390f35b61024b6106d0565b60405161025891906114d9565b60405180910390f35b61027b60048036038101906102769190611bea565b6106d5565b6040516102889190611594565b60405180910390f35b6102ab60048036038101906102a69190611c2a565b610769565b005b60008073ffffffffffffffffffffffffffffffffffffffff168373ffffffffffffffffffffffffffffffffffffffff16141561031e576040517f08c379a000000000000000000000000000000000000000000000000000000000815260040161031590611d33565b60405180910390fd5b60008083815260200190815260200160002060008473ffffffffffffffffffffffffffffffffffffffff1673ffffffffffffffffffffffffffffffffffffffff16815260200190815260200160002054905092915050565b60007fd9b67a26000000000000000000000000000000000000000000000000000000007bffffffffffffffffffffffffffffffffffffffffffffffffffffffff1916827bffffffffffffffffffffffffffffffffffffffffffffffffffffffff1916148061044157507f0e89341c000000000000000000000000000000000000000000000000000000007bffffffffffffffffffffffffffffffffffffffffffffffffffffffff1916827bffffffffffffffffffffffffffffffffffffffffffffffffffffffff1916145b8061045157506104508261081d565b5b9050919050565b60606002805461046790611d82565b80601f016020809104026020016040519081016040528092919081815260200182805461049390611d82565b80156104e05780601f106104b5576101008083540402835291602001916104e0565b820191906000526020600020905b8154815290600101906020018083116104c357829003601f168201915b50505050509050919050565b600381565b6104f9610887565b73ffffffffffffffffffffffffffffffffffffffff168573ffffffffffffffffffffffffffffffffffffffff16148061053f575061053e85610539610887565b6106d5565b5b61057e576040517f08c379a000000000000000000000000000000000000000000000000000000000815260040161057590611e26565b60405180910390fd5b61058b858585858561088f565b5050505050565b600081565b606081518351146105dd576040517f08c379a00000000000000000000000000000000000000000000000000000000081526004016105d490611eb8565b60405180910390fd5b6000835167ffffffffffffffff8111156105fa576105f961169c565b5b6040519080825280602002602001820160405280156106285781602001602082028036833780820191505090505b50905060005b84518110156106a55761067585828151811061064d5761064c611ed8565b5b602002602001015185838151811061066857610667611ed8565b5b60200260200101516102ad565b82828151811061068857610687611ed8565b5b6020026020010181815250508061069e90611f36565b905061062e565b508091505092915050565b600481565b6106c76106c0610887565b8383610ba3565b5050565b600281565b600181565b6000600160008473ffffffffffffffffffffffffffffffffffffffff1673ffffffffffffffffffffffffffffffffffffffff16815260200190815260200160002060008373ffffffffffffffffffffffffffffffffffffffff1673ffffffffffffffffffffffffffffffffffffffff16815260200190815260200160002060009054906101000a900460ff16905092915050565b610771610887565b73ffffffffffffffffffffffffffffffffffffffff168573ffffffffffffffffffffffffffffffffffffffff1614806107b757506107b6856107b1610887565b6106d5565b5b6107f6576040517f08c379a00000000000000000000000000000000000000000000000000000000081526004016107ed90611ff1565b60405180910390fd5b6108038585858585610d10565b5050505050565b600080823b905060008111915050919050565b60007f01ffc9a7000000000000000000000000000000000000000000000000000000007bffffffffffffffffffffffffffffffffffffffffffffffffffffffff1916827bffffffffffffffffffffffffffffffffffffffffffffffffffffffff1916149050919050565b600033905090565b81518351146108d3576040517f08c379a00000000000000000000000000000000000000000000000000000000081526004016108ca90612083565b60405180910390fd5b600073ffffffffffffffffffffffffffffffffffffffff168473ffffffffffffffffffffffffffffffffffffffff161415610943576040517f08c379a000000000000000000000000000000000000000000000000000000000815260040161093a90612115565b60405180910390fd5b600061094d610887565b905061095d818787878787610f92565b60005b8451811015610b0e57600085828151811061097e5761097d611ed8565b5b60200260200101519050600085838151811061099d5761099c611ed8565b5b60200260200101519050600080600084815260200190815260200160002060008b73ffffffffffffffffffffffffffffffffffffffff1673ffffffffffffffffffffffffffffffffffffffff16815260200190815260200160002054905081811015610a3e576040517f08c379a0000000000000000000000000000000000000000000000000000000008152600401610a35906121a7565b60405180910390fd5b81810360008085815260200190815260200160002060008c73ffffffffffffffffffffffffffffffffffffffff1673ffffffffffffffffffffffffffffffffffffffff168152602001908152602001600020819055508160008085815260200190815260200160002060008b73ffffffffffffffffffffffffffffffffffffffff1673ffffffffffffffffffffffffffffffffffffffff1681526020019081526020016000206000828254610af391906121c7565b9250508190555050505080610b0790611f36565b9050610960565b508473ffffffffffffffffffffffffffffffffffffffff168673ffffffffffffffffffffffffffffffffffffffff168273ffffffffffffffffffffffffffffffffffffffff167f4a39dc06d4c0dbc64b70af90fd698a233a518aa5d07e595d983b8c0526c8f7fb8787604051610b8592919061221d565b60405180910390a4610b9b818787878787610f9a565b505050505050565b8173ffffffffffffffffffffffffffffffffffffffff168373ffffffffffffffffffffffffffffffffffffffff161415610c12576040517f08c379a0000000000000000000000000000000000000000000000000000000008152600401610c09906122c6565b60405180910390fd5b80600160008573ffffffffffffffffffffffffffffffffffffffff1673ffffffffffffffffffffffffffffffffffffffff16815260200190815260200160002060008473ffffffffffffffffffffffffffffffffffffffff1673ffffffffffffffffffffffffffffffffffffffff16815260200190815260200160002060006101000a81548160ff0219169083151502179055508173ffffffffffffffffffffffffffffffffffffffff168373ffffffffffffffffffffffffffffffffffffffff167f17307eab39ab6107e8899845ad3d59bd9653f200f220920489ca2b5937696c3183604051610d039190611594565b60405180910390a3505050565b600073ffffffffffffffffffffffffffffffffffffffff168473ffffffffffffffffffffffffffffffffffffffff161415610d80576040517f08c379a0000000000000000000000000000000000000000000000000000000008152600401610d7790612115565b60405180910390fd5b6000610d8a610887565b9050610daa818787610d9b88611181565b610da488611181565b87610f92565b600080600086815260200190815260200160002060008873ffffffffffffffffffffffffffffffffffffffff1673ffffffffffffffffffffffffffffffffffffffff16815260200190815260200160002054905083811015610e41576040517f08c379a0000000000000000000000000000000000000000000000000000000008152600401610e38906121a7565b60405180910390fd5b83810360008087815260200190815260200160002060008973ffffffffffffffffffffffffffffffffffffffff1673ffffffffffffffffffffffffffffffffffffffff168152602001908152602001600020819055508360008087815260200190815260200160002060008873ffffffffffffffffffffffffffffffffffffffff1673ffffffffffffffffffffffffffffffffffffffff1681526020019081526020016000206000828254610ef691906121c7565b925050819055508573ffffffffffffffffffffffffffffffffffffffff168773ffffffffffffffffffffffffffffffffffffffff168373ffffffffffffffffffffffffffffffffffffffff167fc3d58168c5ae7397731d063d5bbf3d657854427343f4c083240f7aacaa2d0f628888604051610f739291906122e6565b60405180910390a4610f898288888888886111fb565b50505050505050565b505050505050565b610fb98473ffffffffffffffffffffffffffffffffffffffff1661080a565b15611179578373ffffffffffffffffffffffffffffffffffffffff1663bc197c8187878686866040518663ffffffff1660e01b8152600401610fff959493929190612373565b602060405180830381600087803b15801561101957600080fd5b505af192505050801561104a57506040513d601f19601f8201168201806040525081019061104791906123f0565b60015b6110f05761105661242a565b806308c379a014156110b3575061106b61244c565b8061107657506110b5565b806040517f08c379a00000000000000000000000000000000000000000000000000000000081526004016110aa9190611675565b60405180910390fd5b505b6040517f08c379a00000000000000000000000000000000000000000000000000000000081526004016110e790612554565b60405180910390fd5b63bc197c8160e01b7bffffffffffffffffffffffffffffffffffffffffffffffffffffffff1916817bffffffffffffffffffffffffffffffffffffffffffffffffffffffff191614611177576040517f08c379a000000000000000000000000000000000000000000000000000000000815260040161116e906125e6565b60405180910390fd5b505b505050505050565b60606000600167ffffffffffffffff8111156111a05761119f61169c565b5b6040519080825280602002602001820160405280156111ce5781602001602082028036833780820191505090505b50905082816000815181106111e6576111e5611ed8565b5b60200260200101818152505080915050919050565b61121a8473ffffffffffffffffffffffffffffffffffffffff1661080a565b156113da578373ffffffffffffffffffffffffffffffffffffffff1663f23a6e6187878686866040518663ffffffff1660e01b8152600401611260959493929190612606565b602060405180830381600087803b15801561127a57600080fd5b505af19250505080156112ab57506040513d601f19601f820116820180604052508101906112a891906123f0565b60015b611351576112b761242a565b806308c379a0141561131457506112cc61244c565b806112d75750611316565b806040517f08c379a000000000000000000000000000000000000000000000000000000000815260040161130b9190611675565b60405180910390fd5b505b6040517f08c379a000000000000000000000000000000000000000000000000000000000815260040161134890612554565b60405180910390fd5b63f23a6e6160e01b7bffffffffffffffffffffffffffffffffffffffffffffffffffffffff1916817bffffffffffffffffffffffffffffffffffffffffffffffffffffffff1916146113d8576040517f08c379a00000000000000000000000000000000000000000000000000000000081526004016113cf906125e6565b60405180910390fd5b505b505050505050565b6000604051905090565b600080fd5b600080fd5b600073ffffffffffffffffffffffffffffffffffffffff82169050919050565b6000611421826113f6565b9050919050565b61143181611416565b811461143c57600080fd5b50565b60008135905061144e81611428565b92915050565b6000819050919050565b61146781611454565b811461147257600080fd5b50565b6000813590506114848161145e565b92915050565b600080604083850312156114a1576114a06113ec565b5b60006114af8582860161143f565b92505060206114c085828601611475565b9150509250929050565b6114d381611454565b82525050565b60006020820190506114ee60008301846114ca565b92915050565b60007fffffffff0000000000000000000000000000000000000000000000000000000082169050919050565b611529816114f4565b811461153457600080fd5b50565b60008135905061154681611520565b92915050565b600060208284031215611562576115616113ec565b5b600061157084828501611537565b91505092915050565b60008115159050919050565b61158e81611579565b82525050565b60006020820190506115a96000830184611585565b92915050565b6000602082840312156115c5576115c46113ec565b5b60006115d384828501611475565b91505092915050565b600081519050919050565b600082825260208201905092915050565b60005b838110156116165780820151818401526020810190506115fb565b83811115611625576000848401525b50505050565b6000601f19601f8301169050919050565b6000611647826115dc565b61165181856115e7565b93506116618185602086016115f8565b61166a8161162b565b840191505092915050565b6000602082019050818103600083015261168f818461163c565b905092915050565b600080fd5b7f4e487b7100000000000000000000000000000000000000000000000000000000600052604160045260246000fd5b6116d48261162b565b810181811067ffffffffffffffff821117156116f3576116f261169c565b5b80604052505050565b60006117066113e2565b905061171282826116cb565b919050565b600067ffffffffffffffff8211156117325761173161169c565b5b602082029050602081019050919050565b600080fd5b600061175b61175684611717565b6116fc565b9050808382526020820190506020840283018581111561177e5761177d611743565b5b835b818110156117a757806117938882611475565b845260208401935050602081019050611780565b5050509392505050565b600082601f8301126117c6576117c5611697565b5b81356117d6848260208601611748565b91505092915050565b600080fd5b600067ffffffffffffffff8211156117ff576117fe61169c565b5b6118088261162b565b9050602081019050919050565b82818337600083830152505050565b6000611837611832846117e4565b6116fc565b905082815260208101848484011115611853576118526117df565b5b61185e848285611815565b509392505050565b600082601f83011261187b5761187a611697565b5b813561188b848260208601611824565b91505092915050565b600080600080600060a086880312156118b0576118af6113ec565b5b60006118be8882890161143f565b95505060206118cf8882890161143f565b945050604086013567ffffffffffffffff8111156118f0576118ef6113f1565b5b6118fc888289016117b1565b935050606086013567ffffffffffffffff81111561191d5761191c6113f1565b5b611929888289016117b1565b925050608086013567ffffffffffffffff81111561194a576119496113f1565b5b61195688828901611866565b9150509295509295909350565b600067ffffffffffffffff82111561197e5761197d61169c565b5b602082029050602081019050919050565b60006119a261199d84611963565b6116fc565b905080838252602082019050602084028301858111156119c5576119c4611743565b5b835b818110156119ee57806119da888261143f565b8452602084019350506020810190506119c7565b5050509392505050565b600082601f830112611a0d57611a0c611697565b5b8135611a1d84826020860161198f565b91505092915050565b60008060408385031215611a3d57611a3c6113ec565b5b600083013567ffffffffffffffff811115611a5b57611a5a6113f1565b5b611a67858286016119f8565b925050602083013567ffffffffffffffff811115611a8857611a876113f1565b5b611a94858286016117b1565b9150509250929050565b600081519050919050565b600082825260208201905092915050565b6000819050602082019050919050565b611ad381611454565b82525050565b6000611ae58383611aca565b60208301905092915050565b6000602082019050919050565b6000611b0982611a9e565b611b138185611aa9565b9350611b1e83611aba565b8060005b83811015611b4f578151611b368882611ad9565b9750611b4183611af1565b925050600181019050611b22565b5085935050505092915050565b60006020820190508181036000830152611b768184611afe565b905092915050565b611b8781611579565b8114611b9257600080fd5b50565b600081359050611ba481611b7e565b92915050565b60008060408385031215611bc157611bc06113ec565b5b6000611bcf8582860161143f565b9250506020611be085828601611b95565b9150509250929050565b60008060408385031215611c0157611c006113ec565b5b6000611c0f8582860161143f565b9250506020611c208582860161143f565b9150509250929050565b600080600080600060a08688031215611c4657611c456113ec565b5b6000611c548882890161143f565b9550506020611c658882890161143f565b9450506040611c7688828901611475565b9350506060611c8788828901611475565b925050608086013567ffffffffffffffff811115611ca857611ca76113f1565b5b611cb488828901611866565b9150509295509295909350565b7f455243313135353a2062616c616e636520717565727920666f7220746865207a60008201527f65726f2061646472657373000000000000000000000000000000000000000000602082015250565b6000611d1d602b836115e7565b9150611d2882611cc1565b604082019050919050565b60006020820190508181036000830152611d4c81611d10565b9050919050565b7f4e487b7100000000000000000000000000000000000000000000000000000000600052602260045260246000fd5b60006002820490506001821680611d9a57607f821691505b60208210811415611dae57611dad611d53565b5b50919050565b7f455243313135353a207472616e736665722063616c6c6572206973206e6f742060008201527f6f776e6572206e6f7220617070726f7665640000000000000000000000000000602082015250565b6000611e106032836115e7565b9150611e1b82611db4565b604082019050919050565b60006020820190508181036000830152611e3f81611e03565b9050919050565b7f455243313135353a206163636f756e747320616e6420696473206c656e67746860008201527f206d69736d617463680000000000000000000000000000000000000000000000602082015250565b6000611ea26029836115e7565b9150611ead82611e46565b604082019050919050565b60006020820190508181036000830152611ed181611e95565b9050919050565b7f4e487b7100000000000000000000000000000000000000000000000000000000600052603260045260246000fd5b7f4e487b7100000000000000000000000000000000000000000000000000000000600052601160045260246000fd5b6000611f4182611454565b91507fffffffffffffffffffffffffffffffffffffffffffffffffffffffffffffffff821415611f7457611f73611f07565b5b600182019050919050565b7f455243313135353a2063616c6c6572206973206e6f74206f776e6572206e6f7260008201527f20617070726f7665640000000000000000000000000000000000000000000000602082015250565b6000611fdb6029836115e7565b9150611fe682611f7f565b604082019050919050565b6000602082019050818103600083015261200a81611fce565b9050919050565b7f455243313135353a2069647320616e6420616d6f756e7473206c656e6774682060008201527f6d69736d61746368000000000000000000000000000000000000000000000000602082015250565b600061206d6028836115e7565b915061207882612011565b604082019050919050565b6000602082019050818103600083015261209c81612060565b9050919050565b7f455243313135353a207472616e7366657220746f20746865207a65726f20616460008201527f6472657373000000000000000000000000000000000000000000000000000000602082015250565b60006120ff6025836115e7565b915061210a826120a3565b604082019050919050565b6000602082019050818103600083015261212e816120f2565b9050919050565b7f455243313135353a20696e73756666696369656e742062616c616e636520666f60008201527f72207472616e7366657200000000000000000000000000000000000000000000602082015250565b6000612191602a836115e7565b915061219c82612135565b604082019050919050565b600060208201905081810360008301526121c081612184565b9050919050565b60006121d282611454565b91506121dd83611454565b9250827fffffffffffffffffffffffffffffffffffffffffffffffffffffffffffffffff0382111561221257612211611f07565b5b828201905092915050565b600060408201905081810360008301526122378185611afe565b9050818103602083015261224b8184611afe565b90509392505050565b7f455243313135353a2073657474696e6720617070726f76616c2073746174757360008201527f20666f722073656c660000000000000000000000000000000000000000000000602082015250565b60006122b06029836115e7565b91506122bb82612254565b604082019050919050565b600060208201905081810360008301526122df816122a3565b9050919050565b60006040820190506122fb60008301856114ca565b61230860208301846114ca565b9392505050565b61231881611416565b82525050565b600081519050919050565b600082825260208201905092915050565b60006123458261231e565b61234f8185612329565b935061235f8185602086016115f8565b6123688161162b565b840191505092915050565b600060a082019050612388600083018861230f565b612395602083018761230f565b81810360408301526123a78186611afe565b905081810360608301526123bb8185611afe565b905081810360808301526123cf818461233a565b90509695505050505050565b6000815190506123ea81611520565b92915050565b600060208284031215612406576124056113ec565b5b6000612414848285016123db565b91505092915050565b60008160e01c9050919050565b600060033d11156124495760046000803e61244660005161241d565b90505b90565b600060443d101561245c576124df565b6124646113e2565b60043d036004823e80513d602482011167ffffffffffffffff8211171561248c5750506124df565b808201805167ffffffffffffffff8111156124aa57505050506124df565b80602083010160043d0385018111156124c75750505050506124df565b6124d6826020018501866116cb565b82955050505050505b90565b7f455243313135353a207472616e7366657220746f206e6f6e204552433131353560008201527f526563656976657220696d706c656d656e746572000000000000000000000000602082015250565b600061253e6034836115e7565b9150612549826124e2565b604082019050919050565b6000602082019050818103600083015261256d81612531565b9050919050565b7f455243313135353a204552433131353552656365697665722072656a6563746560008201527f6420746f6b656e73000000000000000000000000000000000000000000000000602082015250565b60006125d06028836115e7565b91506125db82612574565b604082019050919050565b600060208201905081810360008301526125ff816125c3565b9050919050565b600060a08201905061261b600083018861230f565b612628602083018761230f565b61263560408301866114ca565b61264260608301856114ca565b8181036080830152612654818461233a565b9050969550505050505056fea264697066735822122027639d92e262a7fb5669e16d63271ef650079bec909ce617547a5fa77295b5de64736f6c63430008090033",
  "immutableReferences": {},
  "source": "// SPDX-License-Identifier: MIT\r\n\r\npragma solidity ^0.8.0;\r\n\r\nimport \"./ERC1155.sol\";\r\n\r\ncontract GameItems is ERC1155 {\r\n    uint256 public constant GOLD = 0;\r\n    uint256 public constant SILVER = 1;\r\n    uint256 public constant THORS_HAMMER = 2;\r\n    uint256 public constant SWORD = 3;\r\n    uint256 public constant SHIELD = 4;\r\n\r\n    constructor() public ERC1155(\"./metadata/1.json\") {\r\n        _mint(msg.sender, GOLD, 10**18, \"\");\r\n        _mint(msg.sender, SILVER, 10**27, \"\");\r\n        _mint(msg.sender, THORS_HAMMER, 1, \"\");\r\n        _mint(msg.sender, SWORD, 10**9, \"\");\r\n        _mint(msg.sender, SHIELD, 10**9, \"\");\r\n    }\r\n}\r\n",
  "sourcePath": "C:\\projects\\Blockchain\\ERC1155\\contracts\\GameItems.sol",
  "compiler": {
    "name": "solc",
    "version": "0.8.9+commit.e5eed63a.Emscripten.clang"
  },
  "schemaVersion": "3.4.3",
  "updatedAt": "2021-10-23T05:48:05.986Z",
  "networkType": "ethereum",
  "devdoc": {
    "kind": "dev",
    "methods": {
      "balanceOf(address,uint256)": {
        "details": "See {IERC1155-balanceOf}. Requirements: - `account` cannot be the zero address."
      },
      "balanceOfBatch(address[],uint256[])": {
        "details": "See {IERC1155-balanceOfBatch}. Requirements: - `accounts` and `ids` must have the same length."
      },
      "isApprovedForAll(address,address)": {
        "details": "See {IERC1155-isApprovedForAll}."
      },
      "safeBatchTransferFrom(address,address,uint256[],uint256[],bytes)": {
        "details": "See {IERC1155-safeBatchTransferFrom}."
      },
      "safeTransferFrom(address,address,uint256,uint256,bytes)": {
        "details": "See {IERC1155-safeTransferFrom}."
      },
      "setApprovalForAll(address,bool)": {
        "details": "See {IERC1155-setApprovalForAll}."
      },
      "supportsInterface(bytes4)": {
        "details": "See {IERC165-supportsInterface}."
      },
      "uri(uint256)": {
        "details": "See {IERC1155MetadataURI-uri}. This implementation returns the same URI for *all* token types. It relies on the token type ID substitution mechanism https://eips.ethereum.org/EIPS/eip-1155#metadata[defined in the EIP]. Clients calling this function must replace the `\\{id\\}` substring with the actual token type ID."
      }
    },
    "version": 1
  },
  "userdoc": {
    "kind": "user",
    "methods": {},
    "version": 1
  }
}