{
  "contractName": "GameItems",
  "abi": [
    {
      "inputs": [],
      "stateMutability": "nonpayable",
      "type": "constructor"
    },
    {
      "anonymous": false,
      "inputs": [
        {
          "indexed": true,
          "internalType": "address",
          "name": "account",
          "type": "address"
        },
        {
          "indexed": true,
          "internalType": "address",
          "name": "operator",
          "type": "address"
        },
        {
          "indexed": false,
          "internalType": "bool",
          "name": "approved",
          "type": "bool"
        }
      ],
      "name": "ApprovalForAll",
      "type": "event"
    },
    {
      "anonymous": false,
      "inputs": [
        {
          "indexed": true,
          "internalType": "address",
          "name": "operator",
          "type": "address"
        },
        {
          "indexed": true,
          "internalType": "address",
          "name": "from",
          "type": "address"
        },
        {
          "indexed": true,
          "internalType": "address",
          "name": "to",
          "type": "address"
        },
        {
          "indexed": false,
          "internalType": "uint256[]",
          "name": "ids",
          "type": "uint256[]"
        },
        {
          "indexed": false,
          "internalType": "uint256[]",
          "name": "values",
          "type": "uint256[]"
        }
      ],
      "name": "TransferBatch",
      "type": "event"
    },
    {
      "anonymous": false,
      "inputs": [
        {
          "indexed": true,
          "internalType": "address",
          "name": "operator",
          "type": "address"
        },
        {
          "indexed": true,
          "internalType": "address",
          "name": "from",
          "type": "address"
        },
        {
          "indexed": true,
          "internalType": "address",
          "name": "to",
          "type": "address"
        },
        {
          "indexed": false,
          "internalType": "uint256",
          "name": "id",
          "type": "uint256"
        },
        {
          "indexed": false,
          "internalType": "uint256",
          "name": "value",
          "type": "uint256"
        }
      ],
      "name": "TransferSingle",
      "type": "event"
    },
    {
      "anonymous": false,
      "inputs": [
        {
          "indexed": false,
          "internalType": "string",
          "name": "value",
          "type": "string"
        },
        {
          "indexed": true,
          "internalType": "uint256",
          "name": "id",
          "type": "uint256"
        }
      ],
      "name": "URI",
      "type": "event"
    },
    {
      "inputs": [],
      "name": "GOLD",
      "outputs": [
        {
          "internalType": "uint256",
          "name": "",
          "type": "uint256"
        }
      ],
      "stateMutability": "view",
      "type": "function",
      "constant": true
    },
    {
      "inputs": [],
      "name": "SHIELD",
      "outputs": [
        {
          "internalType": "uint256",
          "name": "",
          "type": "uint256"
        }
      ],
      "stateMutability": "view",
      "type": "function",
      "constant": true
    },
    {
      "inputs": [],
      "name": "SILVER",
      "outputs": [
        {
          "internalType": "uint256",
          "name": "",
          "type": "uint256"
        }
      ],
      "stateMutability": "view",
      "type": "function",
      "constant": true
    },
    {
      "inputs": [],
      "name": "SWORD",
      "outputs": [
        {
          "internalType": "uint256",
          "name": "",
          "type": "uint256"
        }
      ],
      "stateMutability": "view",
      "type": "function",
      "constant": true
    },
    {
      "inputs": [],
      "name": "THORS_HAMMER",
      "outputs": [
        {
          "internalType": "uint256",
          "name": "",
          "type": "uint256"
        }
      ],
      "stateMutability": "view",
      "type": "function",
      "constant": true
    },
    {
      "inputs": [
        {
          "internalType": "address",
          "name": "account",
          "type": "address"
        },
        {
          "internalType": "uint256",
          "name": "id",
          "type": "uint256"
        }
      ],
      "name": "balanceOf",
      "outputs": [
        {
          "internalType": "uint256",
          "name": "",
          "type": "uint256"
        }
      ],
      "stateMutability": "view",
      "type": "function",
      "constant": true
    },
    {
      "inputs": [
        {
          "internalType": "address[]",
          "name": "accounts",
          "type": "address[]"
        },
        {
          "internalType": "uint256[]",
          "name": "ids",
          "type": "uint256[]"
        }
      ],
      "name": "balanceOfBatch",
      "outputs": [
        {
          "internalType": "uint256[]",
          "name": "",
          "type": "uint256[]"
        }
      ],
      "stateMutability": "view",
      "type": "function",
      "constant": true
    },
    {
      "inputs": [
        {
          "internalType": "address",
          "name": "account",
          "type": "address"
        },
        {
          "internalType": "address",
          "name": "operator",
          "type": "address"
        }
      ],
      "name": "isApprovedForAll",
      "outputs": [
        {
          "internalType": "bool",
          "name": "",
          "type": "bool"
        }
      ],
      "stateMutability": "view",
      "type": "function",
      "constant": true
    },
    {
      "inputs": [
        {
          "internalType": "address",
          "name": "from",
          "type": "address"
        },
        {
          "internalType": "address",
          "name": "to",
          "type": "address"
        },
        {
          "internalType": "uint256[]",
          "name": "ids",
          "type": "uint256[]"
        },
        {
          "internalType": "uint256[]",
          "name": "amounts",
          "type": "uint256[]"
        },
        {
          "internalType": "bytes",
          "name": "data",
          "type": "bytes"
        }
      ],
      "name": "safeBatchTransferFrom",
      "outputs": [],
      "stateMutability": "nonpayable",
      "type": "function"
    },
    {
      "inputs": [
        {
          "internalType": "address",
          "name": "from",
          "type": "address"
        },
        {
          "internalType": "address",
          "name": "to",
          "type": "address"
        },
        {
          "internalType": "uint256",
          "name": "id",
          "type": "uint256"
        },
        {
          "internalType": "uint256",
          "name": "amount",
          "type": "uint256"
        },
        {
          "internalType": "bytes",
          "name": "data",
          "type": "bytes"
        }
      ],
      "name": "safeTransferFrom",
      "outputs": [],
      "stateMutability": "nonpayable",
      "type": "function"
    },
    {
      "inputs": [
        {
          "internalType": "address",
          "name": "operator",
          "type": "address"
        },
        {
          "internalType": "bool",
          "name": "approved",
          "type": "bool"
        }
      ],
      "name": "setApprovalForAll",
      "outputs": [],
      "stateMutability": "nonpayable",
      "type": "function"
    },
    {
      "inputs": [
        {
          "internalType": "bytes4",
          "name": "interfaceId",
          "type": "bytes4"
        }
      ],
      "name": "supportsInterface",
      "outputs": [
        {
          "internalType": "bool",
          "name": "",
          "type": "bool"
        }
      ],
      "stateMutability": "view",
      "type": "function",
      "constant": true
    },
    {
      "inputs": [
        {
          "internalType": "uint256",
          "name": "",
          "type": "uint256"
        }
      ],
      "name": "uri",
      "outputs": [
        {
          "internalType": "string",
          "name": "",
          "type": "string"
        }
      ],
      "stateMutability": "view",
      "type": "function",
      "constant": true
    },
    {
      "inputs": [
        {
          "internalType": "address",
          "name": "to",
          "type": "address"
        },
        {
          "internalType": "uint256",
          "name": "id",
          "type": "uint256"
        },
        {
          "internalType": "uint256",
          "name": "amount",
          "type": "uint256"
        },
        {
          "internalType": "bytes",
          "name": "data",
          "type": "bytes"
        }
      ],
      "name": "mint",
      "outputs": [],
      "stateMutability": "nonpayable",
      "type": "function"
    },
    {
      "inputs": [],
      "name": "getAddress",
      "outputs": [
        {
          "internalType": "address",
          "name": "",
          "type": "address"
        }
      ],
      "stateMutability": "view",
      "type": "function",
      "constant": true
    }
  ],
  "bytecode": "0x60806040523480156200001157600080fd5b506040518060400160405280601181526020017f2e2f6d657461646174612f312e6a736f6e00000000000000000000000000000081525062000059816200006060201b60201c565b5062000191565b8060029080519060200190620000789291906200007c565b5050565b8280546200008a906200015b565b90600052602060002090601f016020900481019282620000ae5760008555620000fa565b82601f10620000c957805160ff1916838001178555620000fa565b82800160010185558215620000fa579182015b82811115620000f9578251825591602001919060010190620000dc565b5b5090506200010991906200010d565b5090565b5b80821115620001285760008160009055506001016200010e565b5090565b7f4e487b7100000000000000000000000000000000000000000000000000000000600052602260045260246000fd5b600060028204905060018216806200017457607f821691505b602082108114156200018b576200018a6200012c565b5b50919050565b6129d680620001a16000396000f3fe608060405234801561001057600080fd5b50600436106100f45760003560e01c80634e1273f411610097578063d562e20411610066578063d562e20414610285578063e3e55f08146102a3578063e985e9c5146102c1578063f242432a146102f1576100f4565b80634e1273f4146101ff5780635b2725ed1461022f578063731133e91461024d578063a22cb46514610269576100f4565b806313dc989f116100d357806313dc989f146101895780632eb2c2d6146101a757806338cc4831146101c35780633e4bee38146101e1576100f4565b8062fdd58e146100f957806301ffc9a7146101295780630e89341c14610159575b600080fd5b610113600480360381019061010e919061169a565b61030d565b60405161012091906116e9565b60405180910390f35b610143600480360381019061013e919061175c565b6103d6565b60405161015091906117a4565b60405180910390f35b610173600480360381019061016e91906117bf565b6104b8565b6040516101809190611885565b60405180910390f35b61019161054c565b60405161019e91906116e9565b60405180910390f35b6101c160048036038101906101bc9190611aa4565b610551565b005b6101cb6105f2565b6040516101d89190611b82565b60405180910390f35b6101e96105fa565b6040516101f691906116e9565b60405180910390f35b61021960048036038101906102149190611c60565b6105ff565b6040516102269190611d96565b60405180910390f35b610237610718565b60405161024491906116e9565b60405180910390f35b61026760048036038101906102629190611db8565b61071d565b005b610283600480360381019061027e9190611e67565b61072f565b005b61028d610745565b60405161029a91906116e9565b60405180910390f35b6102ab61074a565b6040516102b891906116e9565b60405180910390f35b6102db60048036038101906102d69190611ea7565b61074f565b6040516102e891906117a4565b60405180910390f35b61030b60048036038101906103069190611ee7565b6107e3565b005b60008073ffffffffffffffffffffffffffffffffffffffff168373ffffffffffffffffffffffffffffffffffffffff16141561037e576040517f08c379a000000000000000000000000000000000000000000000000000000000815260040161037590611ff0565b60405180910390fd5b60008083815260200190815260200160002060008473ffffffffffffffffffffffffffffffffffffffff1673ffffffffffffffffffffffffffffffffffffffff16815260200190815260200160002054905092915050565b60007fd9b67a26000000000000000000000000000000000000000000000000000000007bffffffffffffffffffffffffffffffffffffffffffffffffffffffff1916827bffffffffffffffffffffffffffffffffffffffffffffffffffffffff191614806104a157507f0e89341c000000000000000000000000000000000000000000000000000000007bffffffffffffffffffffffffffffffffffffffffffffffffffffffff1916827bffffffffffffffffffffffffffffffffffffffffffffffffffffffff1916145b806104b157506104b082610884565b5b9050919050565b6060600280546104c79061203f565b80601f01602080910402602001604051908101604052809291908181526020018280546104f39061203f565b80156105405780601f1061051557610100808354040283529160200191610540565b820191906000526020600020905b81548152906001019060200180831161052357829003601f168201915b50505050509050919050565b600381565b6105596108ee565b73ffffffffffffffffffffffffffffffffffffffff168573ffffffffffffffffffffffffffffffffffffffff16148061059f575061059e856105996108ee565b61074f565b5b6105de576040517f08c379a00000000000000000000000000000000000000000000000000000000081526004016105d5906120e3565b60405180910390fd5b6105eb85858585856108f6565b5050505050565b600030905090565b600081565b60608151835114610645576040517f08c379a000000000000000000000000000000000000000000000000000000000815260040161063c90612175565b60405180910390fd5b6000835167ffffffffffffffff811115610662576106616118ac565b5b6040519080825280602002602001820160405280156106905781602001602082028036833780820191505090505b50905060005b845181101561070d576106dd8582815181106106b5576106b4612195565b5b60200260200101518583815181106106d0576106cf612195565b5b602002602001015161030d565b8282815181106106f0576106ef612195565b5b60200260200101818152505080610706906121f3565b9050610696565b508091505092915050565b600481565b61072984848484610c0a565b50505050565b61074161073a6108ee565b8383610da0565b5050565b600281565b600181565b6000600160008473ffffffffffffffffffffffffffffffffffffffff1673ffffffffffffffffffffffffffffffffffffffff16815260200190815260200160002060008373ffffffffffffffffffffffffffffffffffffffff1673ffffffffffffffffffffffffffffffffffffffff16815260200190815260200160002060009054906101000a900460ff16905092915050565b6107eb6108ee565b73ffffffffffffffffffffffffffffffffffffffff168573ffffffffffffffffffffffffffffffffffffffff161480610831575061083061082a6108ee565b8661074f565b5b610870576040517f08c379a0000000000000000000000000000000000000000000000000000000008152600401610867906122ae565b60405180910390fd5b61087d8585858585610f0d565b5050505050565b60007f01ffc9a7000000000000000000000000000000000000000000000000000000007bffffffffffffffffffffffffffffffffffffffffffffffffffffffff1916827bffffffffffffffffffffffffffffffffffffffffffffffffffffffff1916149050919050565b600033905090565b815183511461093a576040517f08c379a000000000000000000000000000000000000000000000000000000000815260040161093190612340565b60405180910390fd5b600073ffffffffffffffffffffffffffffffffffffffff168473ffffffffffffffffffffffffffffffffffffffff1614156109aa576040517f08c379a00000000000000000000000000000000000000000000000000000000081526004016109a1906123d2565b60405180910390fd5b60006109b46108ee565b90506109c481878787878761118f565b60005b8451811015610b755760008582815181106109e5576109e4612195565b5b602002602001015190506000858381518110610a0457610a03612195565b5b60200260200101519050600080600084815260200190815260200160002060008b73ffffffffffffffffffffffffffffffffffffffff1673ffffffffffffffffffffffffffffffffffffffff16815260200190815260200160002054905081811015610aa5576040517f08c379a0000000000000000000000000000000000000000000000000000000008152600401610a9c90612464565b60405180910390fd5b81810360008085815260200190815260200160002060008c73ffffffffffffffffffffffffffffffffffffffff1673ffffffffffffffffffffffffffffffffffffffff168152602001908152602001600020819055508160008085815260200190815260200160002060008b73ffffffffffffffffffffffffffffffffffffffff1673ffffffffffffffffffffffffffffffffffffffff1681526020019081526020016000206000828254610b5a9190612484565b9250508190555050505080610b6e906121f3565b90506109c7565b508473ffffffffffffffffffffffffffffffffffffffff168673ffffffffffffffffffffffffffffffffffffffff168273ffffffffffffffffffffffffffffffffffffffff167f4a39dc06d4c0dbc64b70af90fd698a233a518aa5d07e595d983b8c0526c8f7fb8787604051610bec9291906124da565b60405180910390a4610c02818787878787611197565b505050505050565b600073ffffffffffffffffffffffffffffffffffffffff168473ffffffffffffffffffffffffffffffffffffffff161415610c7a576040517f08c379a0000000000000000000000000000000000000000000000000000000008152600401610c7190612583565b60405180910390fd5b6000610c846108ee565b9050610ca581600087610c968861137e565b610c9f8861137e565b8761118f565b8260008086815260200190815260200160002060008773ffffffffffffffffffffffffffffffffffffffff1673ffffffffffffffffffffffffffffffffffffffff1681526020019081526020016000206000828254610d049190612484565b925050819055508473ffffffffffffffffffffffffffffffffffffffff16600073ffffffffffffffffffffffffffffffffffffffff168273ffffffffffffffffffffffffffffffffffffffff167fc3d58168c5ae7397731d063d5bbf3d657854427343f4c083240f7aacaa2d0f628787604051610d829291906125a3565b60405180910390a4610d99816000878787876113f8565b5050505050565b8173ffffffffffffffffffffffffffffffffffffffff168373ffffffffffffffffffffffffffffffffffffffff161415610e0f576040517f08c379a0000000000000000000000000000000000000000000000000000000008152600401610e069061263e565b60405180910390fd5b80600160008573ffffffffffffffffffffffffffffffffffffffff1673ffffffffffffffffffffffffffffffffffffffff16815260200190815260200160002060008473ffffffffffffffffffffffffffffffffffffffff1673ffffffffffffffffffffffffffffffffffffffff16815260200190815260200160002060006101000a81548160ff0219169083151502179055508173ffffffffffffffffffffffffffffffffffffffff168373ffffffffffffffffffffffffffffffffffffffff167f17307eab39ab6107e8899845ad3d59bd9653f200f220920489ca2b5937696c3183604051610f0091906117a4565b60405180910390a3505050565b600073ffffffffffffffffffffffffffffffffffffffff168473ffffffffffffffffffffffffffffffffffffffff161415610f7d576040517f08c379a0000000000000000000000000000000000000000000000000000000008152600401610f74906123d2565b60405180910390fd5b6000610f876108ee565b9050610fa7818787610f988861137e565b610fa18861137e565b8761118f565b600080600086815260200190815260200160002060008873ffffffffffffffffffffffffffffffffffffffff1673ffffffffffffffffffffffffffffffffffffffff1681526020019081526020016000205490508381101561103e576040517f08c379a000000000000000000000000000000000000000000000000000000000815260040161103590612464565b60405180910390fd5b83810360008087815260200190815260200160002060008973ffffffffffffffffffffffffffffffffffffffff1673ffffffffffffffffffffffffffffffffffffffff168152602001908152602001600020819055508360008087815260200190815260200160002060008873ffffffffffffffffffffffffffffffffffffffff1673ffffffffffffffffffffffffffffffffffffffff16815260200190815260200160002060008282546110f39190612484565b925050819055508573ffffffffffffffffffffffffffffffffffffffff168773ffffffffffffffffffffffffffffffffffffffff168373ffffffffffffffffffffffffffffffffffffffff167fc3d58168c5ae7397731d063d5bbf3d657854427343f4c083240f7aacaa2d0f6288886040516111709291906125a3565b60405180910390a46111868288888888886113f8565b50505050505050565b505050505050565b6111b68473ffffffffffffffffffffffffffffffffffffffff166115df565b15611376578373ffffffffffffffffffffffffffffffffffffffff1663bc197c8187878686866040518663ffffffff1660e01b81526004016111fc9594939291906126b3565b602060405180830381600087803b15801561121657600080fd5b505af192505050801561124757506040513d601f19601f820116820180604052508101906112449190612730565b60015b6112ed5761125361276a565b806308c379a014156112b0575061126861278c565b8061127357506112b2565b806040517f08c379a00000000000000000000000000000000000000000000000000000000081526004016112a79190611885565b60405180910390fd5b505b6040517f08c379a00000000000000000000000000000000000000000000000000000000081526004016112e490612894565b60405180910390fd5b63bc197c8160e01b7bffffffffffffffffffffffffffffffffffffffffffffffffffffffff1916817bffffffffffffffffffffffffffffffffffffffffffffffffffffffff191614611374576040517f08c379a000000000000000000000000000000000000000000000000000000000815260040161136b90612926565b60405180910390fd5b505b505050505050565b60606000600167ffffffffffffffff81111561139d5761139c6118ac565b5b6040519080825280602002602001820160405280156113cb5781602001602082028036833780820191505090505b50905082816000815181106113e3576113e2612195565b5b60200260200101818152505080915050919050565b6114178473ffffffffffffffffffffffffffffffffffffffff166115df565b156115d7578373ffffffffffffffffffffffffffffffffffffffff1663f23a6e6187878686866040518663ffffffff1660e01b815260040161145d959493929190612946565b602060405180830381600087803b15801561147757600080fd5b505af19250505080156114a857506040513d601f19601f820116820180604052508101906114a59190612730565b60015b61154e576114b461276a565b806308c379a0141561151157506114c961278c565b806114d45750611513565b806040517f08c379a00000000000000000000000000000000000000000000000000000000081526004016115089190611885565b60405180910390fd5b505b6040517f08c379a000000000000000000000000000000000000000000000000000000000815260040161154590612894565b60405180910390fd5b63f23a6e6160e01b7bffffffffffffffffffffffffffffffffffffffffffffffffffffffff1916817bffffffffffffffffffffffffffffffffffffffffffffffffffffffff1916146115d5576040517f08c379a00000000000000000000000000000000000000000000000000000000081526004016115cc90612926565b60405180910390fd5b505b505050505050565b600080823b905060008111915050919050565b6000604051905090565b600080fd5b600080fd5b600073ffffffffffffffffffffffffffffffffffffffff82169050919050565b600061163182611606565b9050919050565b61164181611626565b811461164c57600080fd5b50565b60008135905061165e81611638565b92915050565b6000819050919050565b61167781611664565b811461168257600080fd5b50565b6000813590506116948161166e565b92915050565b600080604083850312156116b1576116b06115fc565b5b60006116bf8582860161164f565b92505060206116d085828601611685565b9150509250929050565b6116e381611664565b82525050565b60006020820190506116fe60008301846116da565b92915050565b60007fffffffff0000000000000000000000000000000000000000000000000000000082169050919050565b61173981611704565b811461174457600080fd5b50565b60008135905061175681611730565b92915050565b600060208284031215611772576117716115fc565b5b600061178084828501611747565b91505092915050565b60008115159050919050565b61179e81611789565b82525050565b60006020820190506117b96000830184611795565b92915050565b6000602082840312156117d5576117d46115fc565b5b60006117e384828501611685565b91505092915050565b600081519050919050565b600082825260208201905092915050565b60005b8381101561182657808201518184015260208101905061180b565b83811115611835576000848401525b50505050565b6000601f19601f8301169050919050565b6000611857826117ec565b61186181856117f7565b9350611871818560208601611808565b61187a8161183b565b840191505092915050565b6000602082019050818103600083015261189f818461184c565b905092915050565b600080fd5b7f4e487b7100000000000000000000000000000000000000000000000000000000600052604160045260246000fd5b6118e48261183b565b810181811067ffffffffffffffff82111715611903576119026118ac565b5b80604052505050565b60006119166115f2565b905061192282826118db565b919050565b600067ffffffffffffffff821115611942576119416118ac565b5b602082029050602081019050919050565b600080fd5b600061196b61196684611927565b61190c565b9050808382526020820190506020840283018581111561198e5761198d611953565b5b835b818110156119b757806119a38882611685565b845260208401935050602081019050611990565b5050509392505050565b600082601f8301126119d6576119d56118a7565b5b81356119e6848260208601611958565b91505092915050565b600080fd5b600067ffffffffffffffff821115611a0f57611a0e6118ac565b5b611a188261183b565b9050602081019050919050565b82818337600083830152505050565b6000611a47611a42846119f4565b61190c565b905082815260208101848484011115611a6357611a626119ef565b5b611a6e848285611a25565b509392505050565b600082601f830112611a8b57611a8a6118a7565b5b8135611a9b848260208601611a34565b91505092915050565b600080600080600060a08688031215611ac057611abf6115fc565b5b6000611ace8882890161164f565b9550506020611adf8882890161164f565b945050604086013567ffffffffffffffff811115611b0057611aff611601565b5b611b0c888289016119c1565b935050606086013567ffffffffffffffff811115611b2d57611b2c611601565b5b611b39888289016119c1565b925050608086013567ffffffffffffffff811115611b5a57611b59611601565b5b611b6688828901611a76565b9150509295509295909350565b611b7c81611626565b82525050565b6000602082019050611b976000830184611b73565b92915050565b600067ffffffffffffffff821115611bb857611bb76118ac565b5b602082029050602081019050919050565b6000611bdc611bd784611b9d565b61190c565b90508083825260208201905060208402830185811115611bff57611bfe611953565b5b835b81811015611c285780611c14888261164f565b845260208401935050602081019050611c01565b5050509392505050565b600082601f830112611c4757611c466118a7565b5b8135611c57848260208601611bc9565b91505092915050565b60008060408385031215611c7757611c766115fc565b5b600083013567ffffffffffffffff811115611c9557611c94611601565b5b611ca185828601611c32565b925050602083013567ffffffffffffffff811115611cc257611cc1611601565b5b611cce858286016119c1565b9150509250929050565b600081519050919050565b600082825260208201905092915050565b6000819050602082019050919050565b611d0d81611664565b82525050565b6000611d1f8383611d04565b60208301905092915050565b6000602082019050919050565b6000611d4382611cd8565b611d4d8185611ce3565b9350611d5883611cf4565b8060005b83811015611d89578151611d708882611d13565b9750611d7b83611d2b565b925050600181019050611d5c565b5085935050505092915050565b60006020820190508181036000830152611db08184611d38565b905092915050565b60008060008060808587031215611dd257611dd16115fc565b5b6000611de08782880161164f565b9450506020611df187828801611685565b9350506040611e0287828801611685565b925050606085013567ffffffffffffffff811115611e2357611e22611601565b5b611e2f87828801611a76565b91505092959194509250565b611e4481611789565b8114611e4f57600080fd5b50565b600081359050611e6181611e3b565b92915050565b60008060408385031215611e7e57611e7d6115fc565b5b6000611e8c8582860161164f565b9250506020611e9d85828601611e52565b9150509250929050565b60008060408385031215611ebe57611ebd6115fc565b5b6000611ecc8582860161164f565b9250506020611edd8582860161164f565b9150509250929050565b600080600080600060a08688031215611f0357611f026115fc565b5b6000611f118882890161164f565b9550506020611f228882890161164f565b9450506040611f3388828901611685565b9350506060611f4488828901611685565b925050608086013567ffffffffffffffff811115611f6557611f64611601565b5b611f7188828901611a76565b9150509295509295909350565b7f455243313135353a2062616c616e636520717565727920666f7220746865207a60008201527f65726f2061646472657373000000000000000000000000000000000000000000602082015250565b6000611fda602b836117f7565b9150611fe582611f7e565b604082019050919050565b6000602082019050818103600083015261200981611fcd565b9050919050565b7f4e487b7100000000000000000000000000000000000000000000000000000000600052602260045260246000fd5b6000600282049050600182168061205757607f821691505b6020821081141561206b5761206a612010565b5b50919050565b7f455243313135353a207472616e736665722063616c6c6572206973206e6f742060008201527f6f776e6572206e6f7220617070726f7665640000000000000000000000000000602082015250565b60006120cd6032836117f7565b91506120d882612071565b604082019050919050565b600060208201905081810360008301526120fc816120c0565b9050919050565b7f455243313135353a206163636f756e747320616e6420696473206c656e67746860008201527f206d69736d617463680000000000000000000000000000000000000000000000602082015250565b600061215f6029836117f7565b915061216a82612103565b604082019050919050565b6000602082019050818103600083015261218e81612152565b9050919050565b7f4e487b7100000000000000000000000000000000000000000000000000000000600052603260045260246000fd5b7f4e487b7100000000000000000000000000000000000000000000000000000000600052601160045260246000fd5b60006121fe82611664565b91507fffffffffffffffffffffffffffffffffffffffffffffffffffffffffffffffff821415612231576122306121c4565b5b600182019050919050565b7f455243313135353a2063616c6c6572206973206e6f74206f776e6572206e6f7260008201527f20617070726f7665640000000000000000000000000000000000000000000000602082015250565b60006122986029836117f7565b91506122a38261223c565b604082019050919050565b600060208201905081810360008301526122c78161228b565b9050919050565b7f455243313135353a2069647320616e6420616d6f756e7473206c656e6774682060008201527f6d69736d61746368000000000000000000000000000000000000000000000000602082015250565b600061232a6028836117f7565b9150612335826122ce565b604082019050919050565b600060208201905081810360008301526123598161231d565b9050919050565b7f455243313135353a207472616e7366657220746f20746865207a65726f20616460008201527f6472657373000000000000000000000000000000000000000000000000000000602082015250565b60006123bc6025836117f7565b91506123c782612360565b604082019050919050565b600060208201905081810360008301526123eb816123af565b9050919050565b7f455243313135353a20696e73756666696369656e742062616c616e636520666f60008201527f72207472616e7366657200000000000000000000000000000000000000000000602082015250565b600061244e602a836117f7565b9150612459826123f2565b604082019050919050565b6000602082019050818103600083015261247d81612441565b9050919050565b600061248f82611664565b915061249a83611664565b9250827fffffffffffffffffffffffffffffffffffffffffffffffffffffffffffffffff038211156124cf576124ce6121c4565b5b828201905092915050565b600060408201905081810360008301526124f48185611d38565b905081810360208301526125088184611d38565b90509392505050565b7f455243313135353a206d696e7420746f20746865207a65726f2061646472657360008201527f7300000000000000000000000000000000000000000000000000000000000000602082015250565b600061256d6021836117f7565b915061257882612511565b604082019050919050565b6000602082019050818103600083015261259c81612560565b9050919050565b60006040820190506125b860008301856116da565b6125c560208301846116da565b9392505050565b7f455243313135353a2073657474696e6720617070726f76616c2073746174757360008201527f20666f722073656c660000000000000000000000000000000000000000000000602082015250565b60006126286029836117f7565b9150612633826125cc565b604082019050919050565b600060208201905081810360008301526126578161261b565b9050919050565b600081519050919050565b600082825260208201905092915050565b60006126858261265e565b61268f8185612669565b935061269f818560208601611808565b6126a88161183b565b840191505092915050565b600060a0820190506126c86000830188611b73565b6126d56020830187611b73565b81810360408301526126e78186611d38565b905081810360608301526126fb8185611d38565b9050818103608083015261270f818461267a565b90509695505050505050565b60008151905061272a81611730565b92915050565b600060208284031215612746576127456115fc565b5b60006127548482850161271b565b91505092915050565b60008160e01c9050919050565b600060033d11156127895760046000803e61278660005161275d565b90505b90565b600060443d101561279c5761281f565b6127a46115f2565b60043d036004823e80513d602482011167ffffffffffffffff821117156127cc57505061281f565b808201805167ffffffffffffffff8111156127ea575050505061281f565b80602083010160043d03850181111561280757505050505061281f565b612816826020018501866118db565b82955050505050505b90565b7f455243313135353a207472616e7366657220746f206e6f6e204552433131353560008201527f526563656976657220696d706c656d656e746572000000000000000000000000602082015250565b600061287e6034836117f7565b915061288982612822565b604082019050919050565b600060208201905081810360008301526128ad81612871565b9050919050565b7f455243313135353a204552433131353552656365697665722072656a6563746560008201527f6420746f6b656e73000000000000000000000000000000000000000000000000602082015250565b60006129106028836117f7565b915061291b826128b4565b604082019050919050565b6000602082019050818103600083015261293f81612903565b9050919050565b600060a08201905061295b6000830188611b73565b6129686020830187611b73565b61297560408301866116da565b61298260608301856116da565b8181036080830152612994818461267a565b9050969550505050505056fea264697066735822122064605f88b8e93a8bc7107b098eac19abb653ef68f252efe03613fed0daa2bebe64736f6c63430008090033",
  "immutableReferences": {},
  "source": "// SPDX-License-Identifier: MIT\r\n\r\npragma solidity ^0.8.0;\r\n\r\nimport \"./ERC1155.sol\";\r\n\r\ncontract GameItems is ERC1155 {\r\n    uint256 public constant GOLD = 0;\r\n    uint256 public constant SILVER = 1;\r\n    uint256 public constant THORS_HAMMER = 2;\r\n    uint256 public constant SWORD = 3;\r\n    uint256 public constant SHIELD = 4;\r\n\r\n    constructor() public ERC1155(\"./metadata/1.json\") {\r\n        // _mint(msg.sender, GOLD, 10**18, \"\");\r\n        // _mint(msg.sender, SILVER, 10**27, \"\");\r\n        // _mint(msg.sender, THORS_HAMMER, 1, \"\");\r\n        // _mint(msg.sender, SWORD, 10**9, \"\");\r\n        // _mint(msg.sender, SHIELD, 10**9, \"\");\r\n    }\r\n\r\n    function mint(address to,\r\n        uint256 id,\r\n        uint256 amount,\r\n        bytes memory data) public {\r\n            return _mint(to, id, amount, data);\r\n    }\r\n\r\n    function getAddress() public view returns (address) {\r\n        return address(this);\r\n    }\r\n}\r\n",
  "sourcePath": "F:\\Blockchain\\ERC1155\\ERC1155\\contracts\\GameItems.sol",
  "compiler": {
    "name": "solc",
    "version": "0.8.9+commit.e5eed63a.Emscripten.clang"
  },
  "schemaVersion": "3.4.3",
  "updatedAt": "2021-10-26T07:20:15.970Z",
  "networkType": "ethereum",
  "devdoc": {
    "kind": "dev",
    "methods": {
      "balanceOf(address,uint256)": {
        "details": "See {IERC1155-balanceOf}. Requirements: - `account` cannot be the zero address."
      },
      "balanceOfBatch(address[],uint256[])": {
        "details": "See {IERC1155-balanceOfBatch}. Requirements: - `accounts` and `ids` must have the same length."
      },
      "isApprovedForAll(address,address)": {
        "details": "See {IERC1155-isApprovedForAll}."
      },
      "safeBatchTransferFrom(address,address,uint256[],uint256[],bytes)": {
        "details": "See {IERC1155-safeBatchTransferFrom}."
      },
      "safeTransferFrom(address,address,uint256,uint256,bytes)": {
        "details": "See {IERC1155-safeTransferFrom}."
      },
      "setApprovalForAll(address,bool)": {
        "details": "See {IERC1155-setApprovalForAll}."
      },
      "supportsInterface(bytes4)": {
        "details": "See {IERC165-supportsInterface}."
      },
      "uri(uint256)": {
        "details": "See {IERC1155MetadataURI-uri}. This implementation returns the same URI for *all* token types. It relies on the token type ID substitution mechanism https://eips.ethereum.org/EIPS/eip-1155#metadata[defined in the EIP]. Clients calling this function must replace the `\\{id\\}` substring with the actual token type ID."
      }
    },
    "version": 1
  },
  "userdoc": {
    "kind": "user",
    "methods": {},
    "version": 1
  }
}